{
  "address": "0x77aD4f1978Fdc51bf7A659e042ed59CEB0E03db9",
  "abi": [
    {
      "inputs": [
        {
          "internalType": "address",
          "name": "_messagePasserAddress",
          "type": "address"
        }
      ],
      "stateMutability": "nonpayable",
      "type": "constructor"
    },
    {
      "inputs": [],
      "name": "AlreadySetup",
      "type": "error"
    },
    {
      "inputs": [],
      "name": "Unauthorized",
      "type": "error"
    },
    {
      "anonymous": false,
      "inputs": [
        {
          "indexed": true,
          "internalType": "address",
          "name": "owner",
          "type": "address"
        },
        {
          "indexed": true,
          "internalType": "address",
          "name": "approved",
          "type": "address"
        },
        {
          "indexed": true,
          "internalType": "uint256",
          "name": "tokenId",
          "type": "uint256"
        }
      ],
      "name": "Approval",
      "type": "event"
    },
    {
      "anonymous": false,
      "inputs": [
        {
          "indexed": true,
          "internalType": "address",
          "name": "owner",
          "type": "address"
        },
        {
          "indexed": true,
          "internalType": "address",
          "name": "operator",
          "type": "address"
        },
        {
          "indexed": false,
          "internalType": "bool",
          "name": "approved",
          "type": "bool"
        }
      ],
      "name": "ApprovalForAll",
      "type": "event"
    },
    {
      "anonymous": false,
      "inputs": [
        {
          "indexed": true,
          "internalType": "address",
          "name": "from",
          "type": "address"
        },
        {
          "indexed": true,
          "internalType": "address",
          "name": "to",
          "type": "address"
        },
        {
          "indexed": true,
          "internalType": "uint256",
          "name": "tokenId",
          "type": "uint256"
        }
      ],
      "name": "Transfer",
      "type": "event"
    },
    {
      "inputs": [
        {
          "internalType": "address",
          "name": "to",
          "type": "address"
        },
        {
          "internalType": "uint256",
          "name": "tokenId",
          "type": "uint256"
        }
      ],
      "name": "approve",
      "outputs": [],
      "stateMutability": "nonpayable",
      "type": "function"
    },
    {
      "inputs": [
        {
          "internalType": "address",
          "name": "owner",
          "type": "address"
        }
      ],
      "name": "balanceOf",
      "outputs": [
        {
          "internalType": "uint256",
          "name": "",
          "type": "uint256"
        }
      ],
      "stateMutability": "view",
      "type": "function"
    },
    {
      "inputs": [
        {
          "internalType": "uint256",
          "name": "tokenId",
          "type": "uint256"
        }
      ],
      "name": "burn",
      "outputs": [],
      "stateMutability": "nonpayable",
      "type": "function"
    },
    {
      "inputs": [
        {
          "internalType": "uint256",
          "name": "tokenId",
          "type": "uint256"
        }
      ],
      "name": "getApproved",
      "outputs": [
        {
          "internalType": "address",
          "name": "",
          "type": "address"
        }
      ],
      "stateMutability": "view",
      "type": "function"
    },
    {
      "inputs": [
        {
          "internalType": "address",
          "name": "owner",
          "type": "address"
        },
        {
          "internalType": "address",
          "name": "operator",
          "type": "address"
        }
      ],
      "name": "isApprovedForAll",
      "outputs": [
        {
          "internalType": "bool",
          "name": "",
          "type": "bool"
        }
      ],
      "stateMutability": "view",
      "type": "function"
    },
    {
      "inputs": [],
      "name": "lockBox",
      "outputs": [
        {
          "internalType": "address",
          "name": "",
          "type": "address"
        }
      ],
      "stateMutability": "view",
      "type": "function"
    },
    {
      "inputs": [
        {
          "internalType": "uint256",
          "name": "",
          "type": "uint256"
        }
      ],
      "name": "metadata",
      "outputs": [
        {
          "internalType": "address",
          "name": "tokenContract",
          "type": "address"
        },
        {
          "internalType": "uint256",
          "name": "tokenId",
          "type": "uint256"
        }
      ],
      "stateMutability": "view",
      "type": "function"
    },
    {
      "inputs": [],
      "name": "name",
      "outputs": [
        {
          "internalType": "string",
          "name": "",
          "type": "string"
        }
      ],
      "stateMutability": "view",
      "type": "function"
    },
    {
      "inputs": [
        {
          "internalType": "uint256",
          "name": "tokenId",
          "type": "uint256"
        }
      ],
      "name": "ownerOf",
      "outputs": [
        {
          "internalType": "address",
          "name": "",
          "type": "address"
        }
      ],
      "stateMutability": "view",
      "type": "function"
    },
    {
      "inputs": [
        {
          "internalType": "address",
          "name": "tokenContract",
          "type": "address"
        },
        {
          "internalType": "uint256",
          "name": "tokenId",
          "type": "uint256"
        },
        {
          "internalType": "address",
          "name": "owner",
          "type": "address"
        }
      ],
      "name": "register",
      "outputs": [],
      "stateMutability": "nonpayable",
      "type": "function"
    },
    {
      "inputs": [
        {
          "internalType": "address",
          "name": "from",
          "type": "address"
        },
        {
          "internalType": "address",
          "name": "to",
          "type": "address"
        },
        {
          "internalType": "uint256",
          "name": "tokenId",
          "type": "uint256"
        }
      ],
      "name": "safeTransferFrom",
      "outputs": [],
      "stateMutability": "nonpayable",
      "type": "function"
    },
    {
      "inputs": [
        {
          "internalType": "address",
          "name": "from",
          "type": "address"
        },
        {
          "internalType": "address",
          "name": "to",
          "type": "address"
        },
        {
          "internalType": "uint256",
          "name": "tokenId",
          "type": "uint256"
        },
        {
          "internalType": "bytes",
          "name": "_data",
          "type": "bytes"
        }
      ],
      "name": "safeTransferFrom",
      "outputs": [],
      "stateMutability": "nonpayable",
      "type": "function"
    },
    {
      "inputs": [
        {
          "internalType": "address",
          "name": "operator",
          "type": "address"
        },
        {
          "internalType": "bool",
          "name": "approved",
          "type": "bool"
        }
      ],
      "name": "setApprovalForAll",
      "outputs": [],
      "stateMutability": "nonpayable",
      "type": "function"
    },
    {
      "inputs": [
        {
          "internalType": "address",
          "name": "_lockBox",
          "type": "address"
        }
      ],
      "name": "setupLockbox",
      "outputs": [],
      "stateMutability": "nonpayable",
      "type": "function"
    },
    {
      "inputs": [
        {
          "internalType": "bytes4",
          "name": "interfaceId",
          "type": "bytes4"
        }
      ],
      "name": "supportsInterface",
      "outputs": [
        {
          "internalType": "bool",
          "name": "",
          "type": "bool"
        }
      ],
      "stateMutability": "view",
      "type": "function"
    },
    {
      "inputs": [],
      "name": "symbol",
      "outputs": [
        {
          "internalType": "string",
          "name": "",
          "type": "string"
        }
      ],
      "stateMutability": "view",
      "type": "function"
    },
    {
      "inputs": [
        {
          "internalType": "uint256",
          "name": "index",
          "type": "uint256"
        }
      ],
      "name": "tokenByIndex",
      "outputs": [
        {
          "internalType": "uint256",
          "name": "",
          "type": "uint256"
        }
      ],
      "stateMutability": "view",
      "type": "function"
    },
    {
      "inputs": [
        {
          "internalType": "address",
          "name": "owner",
          "type": "address"
        },
        {
          "internalType": "uint256",
          "name": "index",
          "type": "uint256"
        }
      ],
      "name": "tokenOfOwnerByIndex",
      "outputs": [
        {
          "internalType": "uint256",
          "name": "",
          "type": "uint256"
        }
      ],
      "stateMutability": "view",
      "type": "function"
    },
    {
      "inputs": [
        {
          "internalType": "uint256",
          "name": "tokenId",
          "type": "uint256"
        }
      ],
      "name": "tokenURI",
      "outputs": [
        {
          "internalType": "string",
          "name": "",
          "type": "string"
        }
      ],
      "stateMutability": "view",
      "type": "function"
    },
    {
      "inputs": [],
      "name": "totalSupply",
      "outputs": [
        {
          "internalType": "uint256",
          "name": "",
          "type": "uint256"
        }
      ],
      "stateMutability": "view",
      "type": "function"
    },
    {
      "inputs": [
        {
          "internalType": "address",
          "name": "from",
          "type": "address"
        },
        {
          "internalType": "address",
          "name": "to",
          "type": "address"
        },
        {
          "internalType": "uint256",
          "name": "tokenId",
          "type": "uint256"
        }
      ],
      "name": "transferFrom",
      "outputs": [],
      "stateMutability": "nonpayable",
      "type": "function"
    }
  ],
  "transactionHash": "0xade9e93e0f14c0cfa5d99ac090006f3beab2fc5125815338e73bbc49c20dc07c",
  "args": [
    "0x4200000000000000000000000000000000000000"
  ],
  "numDeployments": 1,
  "solcInputHash": "b87fb8a5dc5816a99a010a71b89f4ac3",
  "bytecode": "0x60806040523480156200001157600080fd5b5060405162003adb38038062003adb8339818101604052810190620000379190620001e6565b6040518060400160405280600c81526020017f4c324b657948616e646c657200000000000000000000000000000000000000008152506040518060400160405280600581526020017f4c324e46540000000000000000000000000000000000000000000000000000008152508160009080519060200190620000bb9291906200011f565b508060019080519060200190620000d49291906200011f565b50505080600b60006101000a81548173ffffffffffffffffffffffffffffffffffffffff021916908373ffffffffffffffffffffffffffffffffffffffff16021790555050620002c5565b8280546200012d9062000246565b90600052602060002090601f0160209004810192826200015157600085556200019d565b82601f106200016c57805160ff19168380011785556200019d565b828001600101855582156200019d579182015b828111156200019c5782518255916020019190600101906200017f565b5b509050620001ac9190620001b0565b5090565b5b80821115620001cb576000816000905550600101620001b1565b5090565b600081519050620001e081620002ab565b92915050565b600060208284031215620001f957600080fd5b60006200020984828501620001cf565b91505092915050565b60006200021f8262000226565b9050919050565b600073ffffffffffffffffffffffffffffffffffffffff82169050919050565b600060028204905060018216806200025f57607f821691505b602082108114156200027657620002756200027c565b5b50919050565b7f4e487b7100000000000000000000000000000000000000000000000000000000600052602260045260246000fd5b620002b68162000212565b8114620002c257600080fd5b50565b61380680620002d56000396000f3fe608060405234801561001057600080fd5b50600436106101375760003560e01c80635d19b0d1116100b857806395d89b411161007c57806395d89b411461035e578063a22cb4651461037c578063b88d4fde14610398578063c87b56dd146103b4578063e3684e39146103e4578063e985e9c51461041557610137565b80635d19b0d1146102a85780636352211e146102c65780636ad180a0146102f657806370a082311461031257806395bda19d1461034257610137565b806323b872dd116100ff57806323b872dd146101f45780632f745c591461021057806342842e0e1461024057806342966c681461025c5780634f6ccce71461027857610137565b806301ffc9a71461013c57806306fdde031461016c578063081812fc1461018a578063095ea7b3146101ba57806318160ddd146101d6575b600080fd5b61015660048036038101906101519190612795565b610445565b6040516101639190612c6b565b60405180910390f35b610174610457565b6040516101819190612c86565b60405180910390f35b6101a4600480360381019061019f91906127e7565b6104e9565b6040516101b19190612b66565b60405180910390f35b6101d460048036038101906101cf919061270a565b61056e565b005b6101de610686565b6040516101eb9190612ec8565b60405180910390f35b61020e60048036038101906102099190612604565b610693565b005b61022a6004803603810190610225919061270a565b6106f3565b6040516102379190612ec8565b60405180910390f35b61025a60048036038101906102559190612604565b610798565b005b610276600480360381019061027191906127e7565b6107b8565b005b610292600480360381019061028d91906127e7565b610814565b60405161029f9190612ec8565b60405180910390f35b6102b06108ab565b6040516102bd9190612b66565b60405180910390f35b6102e060048036038101906102db91906127e7565b6108d1565b6040516102ed9190612b66565b60405180910390f35b610310600480360381019061030b9190612576565b610983565b005b61032c60048036038101906103279190612576565b610a4f565b6040516103399190612ec8565b60405180910390f35b61035c60048036038101906103579190612746565b610b07565b005b610366610d42565b6040516103739190612c86565b60405180910390f35b610396600480360381019061039191906126ce565b610dd4565b005b6103b260048036038101906103ad9190612653565b610dea565b005b6103ce60048036038101906103c991906127e7565b610e4c565b6040516103db9190612c86565b60405180910390f35b6103fe60048036038101906103f991906127e7565b610ef3565b60405161040c929190612c0b565b60405180910390f35b61042f600480360381019061042a91906125c8565b610f37565b60405161043c9190612c6b565b60405180910390f35b600061045082610fcb565b9050919050565b606060008054610466906130fd565b80601f0160208091040260200160405190810160405280929190818152602001828054610492906130fd565b80156104df5780601f106104b4576101008083540402835291602001916104df565b820191906000526020600020905b8154815290600101906020018083116104c257829003601f168201915b5050505050905090565b60006104f482611045565b610533576040517f08c379a000000000000000000000000000000000000000000000000000000000815260040161052a90612de8565b60405180910390fd5b6004600083815260200190815260200160002060009054906101000a900473ffffffffffffffffffffffffffffffffffffffff169050919050565b6000610579826108d1565b90508073ffffffffffffffffffffffffffffffffffffffff168373ffffffffffffffffffffffffffffffffffffffff1614156105ea576040517f08c379a00000000000000000000000000000000000000000000000000000000081526004016105e190612e48565b60405180910390fd5b8073ffffffffffffffffffffffffffffffffffffffff166106096110b1565b73ffffffffffffffffffffffffffffffffffffffff1614806106385750610637816106326110b1565b610f37565b5b610677576040517f08c379a000000000000000000000000000000000000000000000000000000000815260040161066e90612d68565b60405180910390fd5b61068183836110b9565b505050565b6000600880549050905090565b6106a461069e6110b1565b82611172565b6106e3576040517f08c379a00000000000000000000000000000000000000000000000000000000081526004016106da90612e68565b60405180910390fd5b6106ee838383611250565b505050565b60006106fe83610a4f565b821061073f576040517f08c379a000000000000000000000000000000000000000000000000000000000815260040161073690612ca8565b60405180910390fd5b600660008473ffffffffffffffffffffffffffffffffffffffff1673ffffffffffffffffffffffffffffffffffffffff168152602001908152602001600020600083815260200190815260200160002054905092915050565b6107b383838360405180602001604052806000815250610dea565b505050565b6107c96107c36110b1565b82611172565b610808576040517f08c379a00000000000000000000000000000000000000000000000000000000081526004016107ff90612ea8565b60405180910390fd5b610811816114ac565b50565b600061081e610686565b821061085f576040517f08c379a000000000000000000000000000000000000000000000000000000000815260040161085690612e88565b60405180910390fd5b60088281548110610899577f4e487b7100000000000000000000000000000000000000000000000000000000600052603260045260246000fd5b90600052602060002001549050919050565b600c60009054906101000a900473ffffffffffffffffffffffffffffffffffffffff1681565b6000806002600084815260200190815260200160002060009054906101000a900473ffffffffffffffffffffffffffffffffffffffff169050600073ffffffffffffffffffffffffffffffffffffffff168173ffffffffffffffffffffffffffffffffffffffff16141561097a576040517f08c379a000000000000000000000000000000000000000000000000000000000815260040161097190612da8565b60405180910390fd5b80915050919050565b600073ffffffffffffffffffffffffffffffffffffffff16600c60009054906101000a900473ffffffffffffffffffffffffffffffffffffffff1673ffffffffffffffffffffffffffffffffffffffff1614610a0b576040517f7735869100000000000000000000000000000000000000000000000000000000815260040160405180910390fd5b80600c60006101000a81548173ffffffffffffffffffffffffffffffffffffffff021916908373ffffffffffffffffffffffffffffffffffffffff16021790555050565b60008073ffffffffffffffffffffffffffffffffffffffff168273ffffffffffffffffffffffffffffffffffffffff161415610ac0576040517f08c379a0000000000000000000000000000000000000000000000000000000008152600401610ab790612d88565b60405180910390fd5b600360008373ffffffffffffffffffffffffffffffffffffffff1673ffffffffffffffffffffffffffffffffffffffff168152602001908152602001600020549050919050565b600b60009054906101000a900473ffffffffffffffffffffffffffffffffffffffff1673ffffffffffffffffffffffffffffffffffffffff163373ffffffffffffffffffffffffffffffffffffffff16141580610c515750600c60009054906101000a900473ffffffffffffffffffffffffffffffffffffffff1673ffffffffffffffffffffffffffffffffffffffff16600b60009054906101000a900473ffffffffffffffffffffffffffffffffffffffff1673ffffffffffffffffffffffffffffffffffffffff16636e296e456040518163ffffffff1660e01b815260040160206040518083038186803b158015610c0057600080fd5b505afa158015610c14573d6000803e3d6000fd5b505050506040513d601f19601f82011682018060405250810190610c38919061259f565b73ffffffffffffffffffffffffffffffffffffffff1614155b15610c88576040517f82b4290000000000000000000000000000000000000000000000000000000000815260040160405180910390fd5b610c92600a6115bd565b6000610c9e600a6115d3565b9050610caa82826115e1565b60405180604001604052808573ffffffffffffffffffffffffffffffffffffffff16815260200184815250600d600083815260200190815260200160002060008201518160000160006101000a81548173ffffffffffffffffffffffffffffffffffffffff021916908373ffffffffffffffffffffffffffffffffffffffff1602179055506020820151816001015590505050505050565b606060018054610d51906130fd565b80601f0160208091040260200160405190810160405280929190818152602001828054610d7d906130fd565b8015610dca5780601f10610d9f57610100808354040283529160200191610dca565b820191906000526020600020905b815481529060010190602001808311610dad57829003601f168201915b5050505050905090565b610de6610ddf6110b1565b83836117af565b5050565b610dfb610df56110b1565b83611172565b610e3a576040517f08c379a0000000000000000000000000000000000000000000000000000000008152600401610e3190612e68565b60405180910390fd5b610e468484848461191c565b50505050565b6060610e5782611045565b610e96576040517f08c379a0000000000000000000000000000000000000000000000000000000008152600401610e8d90612e28565b60405180910390fd5b6000610ea0611978565b90506000815111610ec05760405180602001604052806000815250610eeb565b80610eca8461198f565b604051602001610edb929190612b42565b6040516020818303038152906040525b915050919050565b600d6020528060005260406000206000915090508060000160009054906101000a900473ffffffffffffffffffffffffffffffffffffffff16908060010154905082565b6000600560008473ffffffffffffffffffffffffffffffffffffffff1673ffffffffffffffffffffffffffffffffffffffff16815260200190815260200160002060008373ffffffffffffffffffffffffffffffffffffffff1673ffffffffffffffffffffffffffffffffffffffff16815260200190815260200160002060009054906101000a900460ff16905092915050565b60007f780e9d63000000000000000000000000000000000000000000000000000000007bffffffffffffffffffffffffffffffffffffffffffffffffffffffff1916827bffffffffffffffffffffffffffffffffffffffffffffffffffffffff1916148061103e575061103d82611b3c565b5b9050919050565b60008073ffffffffffffffffffffffffffffffffffffffff166002600084815260200190815260200160002060009054906101000a900473ffffffffffffffffffffffffffffffffffffffff1673ffffffffffffffffffffffffffffffffffffffff1614159050919050565b600033905090565b816004600083815260200190815260200160002060006101000a81548173ffffffffffffffffffffffffffffffffffffffff021916908373ffffffffffffffffffffffffffffffffffffffff160217905550808273ffffffffffffffffffffffffffffffffffffffff1661112c836108d1565b73ffffffffffffffffffffffffffffffffffffffff167f8c5be1e5ebec7d5bd14f71427d1e84f3dd0314c0f7b2291e5b200ac8c7c3b92560405160405180910390a45050565b600061117d82611045565b6111bc576040517f08c379a00000000000000000000000000000000000000000000000000000000081526004016111b390612d48565b60405180910390fd5b60006111c7836108d1565b90508073ffffffffffffffffffffffffffffffffffffffff168473ffffffffffffffffffffffffffffffffffffffff16148061123657508373ffffffffffffffffffffffffffffffffffffffff1661121e846104e9565b73ffffffffffffffffffffffffffffffffffffffff16145b8061124757506112468185610f37565b5b91505092915050565b8273ffffffffffffffffffffffffffffffffffffffff16611270826108d1565b73ffffffffffffffffffffffffffffffffffffffff16146112c6576040517f08c379a00000000000000000000000000000000000000000000000000000000081526004016112bd90612e08565b60405180910390fd5b600073ffffffffffffffffffffffffffffffffffffffff168273ffffffffffffffffffffffffffffffffffffffff161415611336576040517f08c379a000000000000000000000000000000000000000000000000000000000815260040161132d90612d08565b60405180910390fd5b611341838383611c1e565b61134c6000826110b9565b6001600360008573ffffffffffffffffffffffffffffffffffffffff1673ffffffffffffffffffffffffffffffffffffffff168152602001908152602001600020600082825461139c9190613003565b925050819055506001600360008473ffffffffffffffffffffffffffffffffffffffff1673ffffffffffffffffffffffffffffffffffffffff16815260200190815260200160002060008282546113f39190612f7c565b92505081905550816002600083815260200190815260200160002060006101000a81548173ffffffffffffffffffffffffffffffffffffffff021916908373ffffffffffffffffffffffffffffffffffffffff160217905550808273ffffffffffffffffffffffffffffffffffffffff168473ffffffffffffffffffffffffffffffffffffffff167fddf252ad1be2c89b69c2b068fc378daa952ba7f163c4a11628f55a4df523b3ef60405160405180910390a4505050565b60006114b7826108d1565b90506114c581600084611c1e565b6114d06000836110b9565b6001600360008373ffffffffffffffffffffffffffffffffffffffff1673ffffffffffffffffffffffffffffffffffffffff16815260200190815260200160002060008282546115209190613003565b925050819055506002600083815260200190815260200160002060006101000a81549073ffffffffffffffffffffffffffffffffffffffff021916905581600073ffffffffffffffffffffffffffffffffffffffff168273ffffffffffffffffffffffffffffffffffffffff167fddf252ad1be2c89b69c2b068fc378daa952ba7f163c4a11628f55a4df523b3ef60405160405180910390a45050565b6001816000016000828254019250508190555050565b600081600001549050919050565b600073ffffffffffffffffffffffffffffffffffffffff168273ffffffffffffffffffffffffffffffffffffffff161415611651576040517f08c379a000000000000000000000000000000000000000000000000000000000815260040161164890612dc8565b60405180910390fd5b61165a81611045565b1561169a576040517f08c379a000000000000000000000000000000000000000000000000000000000815260040161169190612ce8565b60405180910390fd5b6116a660008383611c1e565b6001600360008473ffffffffffffffffffffffffffffffffffffffff1673ffffffffffffffffffffffffffffffffffffffff16815260200190815260200160002060008282546116f69190612f7c565b92505081905550816002600083815260200190815260200160002060006101000a81548173ffffffffffffffffffffffffffffffffffffffff021916908373ffffffffffffffffffffffffffffffffffffffff160217905550808273ffffffffffffffffffffffffffffffffffffffff16600073ffffffffffffffffffffffffffffffffffffffff167fddf252ad1be2c89b69c2b068fc378daa952ba7f163c4a11628f55a4df523b3ef60405160405180910390a45050565b8173ffffffffffffffffffffffffffffffffffffffff168373ffffffffffffffffffffffffffffffffffffffff16141561181e576040517f08c379a000000000000000000000000000000000000000000000000000000000815260040161181590612d28565b60405180910390fd5b80600560008573ffffffffffffffffffffffffffffffffffffffff1673ffffffffffffffffffffffffffffffffffffffff16815260200190815260200160002060008473ffffffffffffffffffffffffffffffffffffffff1673ffffffffffffffffffffffffffffffffffffffff16815260200190815260200160002060006101000a81548160ff0219169083151502179055508173ffffffffffffffffffffffffffffffffffffffff168373ffffffffffffffffffffffffffffffffffffffff167f17307eab39ab6107e8899845ad3d59bd9653f200f220920489ca2b5937696c318360405161190f9190612c6b565b60405180910390a3505050565b611927848484611250565b61193384848484611deb565b611972576040517f08c379a000000000000000000000000000000000000000000000000000000000815260040161196990612cc8565b60405180910390fd5b50505050565b606060405180602001604052806000815250905090565b606060008214156119d7576040518060400160405280600181526020017f30000000000000000000000000000000000000000000000000000000000000008152509050611b37565b600082905060005b60008214611a095780806119f290613160565b915050600a82611a029190612fd2565b91506119df565b60008167ffffffffffffffff811115611a4b577f4e487b7100000000000000000000000000000000000000000000000000000000600052604160045260246000fd5b6040519080825280601f01601f191660200182016040528015611a7d5781602001600182028036833780820191505090505b5090505b60008514611b3057600182611a969190613003565b9150600a85611aa591906131a9565b6030611ab19190612f7c565b60f81b818381518110611aed577f4e487b7100000000000000000000000000000000000000000000000000000000600052603260045260246000fd5b60200101907effffffffffffffffffffffffffffffffffffffffffffffffffffffffffffff1916908160001a905350600a85611b299190612fd2565b9450611a81565b8093505050505b919050565b60007f80ac58cd000000000000000000000000000000000000000000000000000000007bffffffffffffffffffffffffffffffffffffffffffffffffffffffff1916827bffffffffffffffffffffffffffffffffffffffffffffffffffffffff19161480611c0757507f5b5e139f000000000000000000000000000000000000000000000000000000007bffffffffffffffffffffffffffffffffffffffffffffffffffffffff1916827bffffffffffffffffffffffffffffffffffffffffffffffffffffffff1916145b80611c175750611c1682611f82565b5b9050919050565b600073ffffffffffffffffffffffffffffffffffffffff168273ffffffffffffffffffffffffffffffffffffffff161415611ddb576000600d60008381526020019081526020016000209050600b60009054906101000a900473ffffffffffffffffffffffffffffffffffffffff1673ffffffffffffffffffffffffffffffffffffffff16633dbb202b600c60009054906101000a900473ffffffffffffffffffffffffffffffffffffffff168360000160009054906101000a900473ffffffffffffffffffffffffffffffffffffffff16846001015488604051602401611d0893929190612c34565b6040516020818303038152906040527f15f41501000000000000000000000000000000000000000000000000000000007bffffffffffffffffffffffffffffffffffffffffffffffffffffffff19166020820180517bffffffffffffffffffffffffffffffffffffffffffffffffffffffff8381831617835250505050620f42406040518463ffffffff1660e01b8152600401611da793929190612bcd565b600060405180830381600087803b158015611dc157600080fd5b505af1158015611dd5573d6000803e3d6000fd5b50505050505b611de6838383611fec565b505050565b6000611e0c8473ffffffffffffffffffffffffffffffffffffffff16612100565b15611f75578373ffffffffffffffffffffffffffffffffffffffff1663150b7a02611e356110b1565b8786866040518563ffffffff1660e01b8152600401611e579493929190612b81565b602060405180830381600087803b158015611e7157600080fd5b505af1925050508015611ea257506040513d601f19601f82011682018060405250810190611e9f91906127be565b60015b611f25573d8060008114611ed2576040519150601f19603f3d011682016040523d82523d6000602084013e611ed7565b606091505b50600081511415611f1d576040517f08c379a0000000000000000000000000000000000000000000000000000000008152600401611f1490612cc8565b60405180910390fd5b805181602001fd5b63150b7a0260e01b7bffffffffffffffffffffffffffffffffffffffffffffffffffffffff1916817bffffffffffffffffffffffffffffffffffffffffffffffffffffffff191614915050611f7a565b600190505b949350505050565b60007f01ffc9a7000000000000000000000000000000000000000000000000000000007bffffffffffffffffffffffffffffffffffffffffffffffffffffffff1916827bffffffffffffffffffffffffffffffffffffffffffffffffffffffff1916149050919050565b611ff7838383612113565b600073ffffffffffffffffffffffffffffffffffffffff168373ffffffffffffffffffffffffffffffffffffffff16141561203a5761203581612118565b612079565b8173ffffffffffffffffffffffffffffffffffffffff168373ffffffffffffffffffffffffffffffffffffffff1614612078576120778382612161565b5b5b600073ffffffffffffffffffffffffffffffffffffffff168273ffffffffffffffffffffffffffffffffffffffff1614156120bc576120b7816122ce565b6120fb565b8273ffffffffffffffffffffffffffffffffffffffff168273ffffffffffffffffffffffffffffffffffffffff16146120fa576120f98282612411565b5b5b505050565b600080823b905060008111915050919050565b505050565b6008805490506009600083815260200190815260200160002081905550600881908060018154018082558091505060019003906000526020600020016000909190919091505550565b6000600161216e84610a4f565b6121789190613003565b905060006007600084815260200190815260200160002054905081811461225d576000600660008673ffffffffffffffffffffffffffffffffffffffff1673ffffffffffffffffffffffffffffffffffffffff168152602001908152602001600020600084815260200190815260200160002054905080600660008773ffffffffffffffffffffffffffffffffffffffff1673ffffffffffffffffffffffffffffffffffffffff168152602001908152602001600020600084815260200190815260200160002081905550816007600083815260200190815260200160002081905550505b6007600084815260200190815260200160002060009055600660008573ffffffffffffffffffffffffffffffffffffffff1673ffffffffffffffffffffffffffffffffffffffff16815260200190815260200160002060008381526020019081526020016000206000905550505050565b600060016008805490506122e29190613003565b9050600060096000848152602001908152602001600020549050600060088381548110612338577f4e487b7100000000000000000000000000000000000000000000000000000000600052603260045260246000fd5b906000526020600020015490508060088381548110612380577f4e487b7100000000000000000000000000000000000000000000000000000000600052603260045260246000fd5b9060005260206000200181905550816009600083815260200190815260200160002081905550600960008581526020019081526020016000206000905560088054806123f5577f4e487b7100000000000000000000000000000000000000000000000000000000600052603160045260246000fd5b6001900381819060005260206000200160009055905550505050565b600061241c83610a4f565b905081600660008573ffffffffffffffffffffffffffffffffffffffff1673ffffffffffffffffffffffffffffffffffffffff168152602001908152602001600020600083815260200190815260200160002081905550806007600084815260200190815260200160002081905550505050565b60006124a361249e84612f08565b612ee3565b9050828152602081018484840111156124bb57600080fd5b6124c68482856130bb565b509392505050565b6000813590506124dd81613774565b92915050565b6000815190506124f281613774565b92915050565b6000813590506125078161378b565b92915050565b60008135905061251c816137a2565b92915050565b600081519050612531816137a2565b92915050565b600082601f83011261254857600080fd5b8135612558848260208601612490565b91505092915050565b600081359050612570816137b9565b92915050565b60006020828403121561258857600080fd5b6000612596848285016124ce565b91505092915050565b6000602082840312156125b157600080fd5b60006125bf848285016124e3565b91505092915050565b600080604083850312156125db57600080fd5b60006125e9858286016124ce565b92505060206125fa858286016124ce565b9150509250929050565b60008060006060848603121561261957600080fd5b6000612627868287016124ce565b9350506020612638868287016124ce565b925050604061264986828701612561565b9150509250925092565b6000806000806080858703121561266957600080fd5b6000612677878288016124ce565b9450506020612688878288016124ce565b935050604061269987828801612561565b925050606085013567ffffffffffffffff8111156126b657600080fd5b6126c287828801612537565b91505092959194509250565b600080604083850312156126e157600080fd5b60006126ef858286016124ce565b9250506020612700858286016124f8565b9150509250929050565b6000806040838503121561271d57600080fd5b600061272b858286016124ce565b925050602061273c85828601612561565b9150509250929050565b60008060006060848603121561275b57600080fd5b6000612769868287016124ce565b935050602061277a86828701612561565b925050604061278b868287016124ce565b9150509250925092565b6000602082840312156127a757600080fd5b60006127b58482850161250d565b91505092915050565b6000602082840312156127d057600080fd5b60006127de84828501612522565b91505092915050565b6000602082840312156127f957600080fd5b600061280784828501612561565b91505092915050565b61281981613037565b82525050565b61282881613049565b82525050565b600061283982612f39565b6128438185612f4f565b93506128538185602086016130ca565b61285c81613296565b840191505092915050565b600061287282612f44565b61287c8185612f60565b935061288c8185602086016130ca565b61289581613296565b840191505092915050565b60006128ab82612f44565b6128b58185612f71565b93506128c58185602086016130ca565b80840191505092915050565b60006128de602b83612f60565b91506128e9826132a7565b604082019050919050565b6000612901603283612f60565b915061290c826132f6565b604082019050919050565b6000612924601c83612f60565b915061292f82613345565b602082019050919050565b6000612947602483612f60565b91506129528261336e565b604082019050919050565b600061296a601983612f60565b9150612975826133bd565b602082019050919050565b600061298d602c83612f60565b9150612998826133e6565b604082019050919050565b60006129b0603883612f60565b91506129bb82613435565b604082019050919050565b60006129d3602a83612f60565b91506129de82613484565b604082019050919050565b60006129f6602983612f60565b9150612a01826134d3565b604082019050919050565b6000612a19602083612f60565b9150612a2482613522565b602082019050919050565b6000612a3c602c83612f60565b9150612a478261354b565b604082019050919050565b6000612a5f602983612f60565b9150612a6a8261359a565b604082019050919050565b6000612a82602f83612f60565b9150612a8d826135e9565b604082019050919050565b6000612aa5602183612f60565b9150612ab082613638565b604082019050919050565b6000612ac8603183612f60565b9150612ad382613687565b604082019050919050565b6000612aeb602c83612f60565b9150612af6826136d6565b604082019050919050565b6000612b0e603083612f60565b9150612b1982613725565b604082019050919050565b612b2d816130a1565b82525050565b612b3c816130ab565b82525050565b6000612b4e82856128a0565b9150612b5a82846128a0565b91508190509392505050565b6000602082019050612b7b6000830184612810565b92915050565b6000608082019050612b966000830187612810565b612ba36020830186612810565b612bb06040830185612b24565b8181036060830152612bc2818461282e565b905095945050505050565b6000606082019050612be26000830186612810565b8181036020830152612bf4818561282e565b9050612c036040830184612b33565b949350505050565b6000604082019050612c206000830185612810565b612c2d6020830184612b24565b9392505050565b6000606082019050612c496000830186612810565b612c566020830185612b24565b612c636040830184612810565b949350505050565b6000602082019050612c80600083018461281f565b92915050565b60006020820190508181036000830152612ca08184612867565b905092915050565b60006020820190508181036000830152612cc1816128d1565b9050919050565b60006020820190508181036000830152612ce1816128f4565b9050919050565b60006020820190508181036000830152612d0181612917565b9050919050565b60006020820190508181036000830152612d218161293a565b9050919050565b60006020820190508181036000830152612d418161295d565b9050919050565b60006020820190508181036000830152612d6181612980565b9050919050565b60006020820190508181036000830152612d81816129a3565b9050919050565b60006020820190508181036000830152612da1816129c6565b9050919050565b60006020820190508181036000830152612dc1816129e9565b9050919050565b60006020820190508181036000830152612de181612a0c565b9050919050565b60006020820190508181036000830152612e0181612a2f565b9050919050565b60006020820190508181036000830152612e2181612a52565b9050919050565b60006020820190508181036000830152612e4181612a75565b9050919050565b60006020820190508181036000830152612e6181612a98565b9050919050565b60006020820190508181036000830152612e8181612abb565b9050919050565b60006020820190508181036000830152612ea181612ade565b9050919050565b60006020820190508181036000830152612ec181612b01565b9050919050565b6000602082019050612edd6000830184612b24565b92915050565b6000612eed612efe565b9050612ef9828261312f565b919050565b6000604051905090565b600067ffffffffffffffff821115612f2357612f22613267565b5b612f2c82613296565b9050602081019050919050565b600081519050919050565b600081519050919050565b600082825260208201905092915050565b600082825260208201905092915050565b600081905092915050565b6000612f87826130a1565b9150612f92836130a1565b9250827fffffffffffffffffffffffffffffffffffffffffffffffffffffffffffffffff03821115612fc757612fc66131da565b5b828201905092915050565b6000612fdd826130a1565b9150612fe8836130a1565b925082612ff857612ff7613209565b5b828204905092915050565b600061300e826130a1565b9150613019836130a1565b92508282101561302c5761302b6131da565b5b828203905092915050565b600061304282613081565b9050919050565b60008115159050919050565b60007fffffffff0000000000000000000000000000000000000000000000000000000082169050919050565b600073ffffffffffffffffffffffffffffffffffffffff82169050919050565b6000819050919050565b600063ffffffff82169050919050565b82818337600083830152505050565b60005b838110156130e85780820151818401526020810190506130cd565b838111156130f7576000848401525b50505050565b6000600282049050600182168061311557607f821691505b6020821081141561312957613128613238565b5b50919050565b61313882613296565b810181811067ffffffffffffffff8211171561315757613156613267565b5b80604052505050565b600061316b826130a1565b91507fffffffffffffffffffffffffffffffffffffffffffffffffffffffffffffffff82141561319e5761319d6131da565b5b600182019050919050565b60006131b4826130a1565b91506131bf836130a1565b9250826131cf576131ce613209565b5b828206905092915050565b7f4e487b7100000000000000000000000000000000000000000000000000000000600052601160045260246000fd5b7f4e487b7100000000000000000000000000000000000000000000000000000000600052601260045260246000fd5b7f4e487b7100000000000000000000000000000000000000000000000000000000600052602260045260246000fd5b7f4e487b7100000000000000000000000000000000000000000000000000000000600052604160045260246000fd5b6000601f19601f8301169050919050565b7f455243373231456e756d657261626c653a206f776e657220696e646578206f7560008201527f74206f6620626f756e6473000000000000000000000000000000000000000000602082015250565b7f4552433732313a207472616e7366657220746f206e6f6e20455243373231526560008201527f63656976657220696d706c656d656e7465720000000000000000000000000000602082015250565b7f4552433732313a20746f6b656e20616c7265616479206d696e74656400000000600082015250565b7f4552433732313a207472616e7366657220746f20746865207a65726f2061646460008201527f7265737300000000000000000000000000000000000000000000000000000000602082015250565b7f4552433732313a20617070726f766520746f2063616c6c657200000000000000600082015250565b7f4552433732313a206f70657261746f7220717565727920666f72206e6f6e657860008201527f697374656e7420746f6b656e0000000000000000000000000000000000000000602082015250565b7f4552433732313a20617070726f76652063616c6c6572206973206e6f74206f7760008201527f6e6572206e6f7220617070726f76656420666f7220616c6c0000000000000000602082015250565b7f4552433732313a2062616c616e636520717565727920666f7220746865207a6560008201527f726f206164647265737300000000000000000000000000000000000000000000602082015250565b7f4552433732313a206f776e657220717565727920666f72206e6f6e657869737460008201527f656e7420746f6b656e0000000000000000000000000000000000000000000000602082015250565b7f4552433732313a206d696e7420746f20746865207a65726f2061646472657373600082015250565b7f4552433732313a20617070726f76656420717565727920666f72206e6f6e657860008201527f697374656e7420746f6b656e0000000000000000000000000000000000000000602082015250565b7f4552433732313a207472616e73666572206f6620746f6b656e2074686174206960008201527f73206e6f74206f776e0000000000000000000000000000000000000000000000602082015250565b7f4552433732314d657461646174613a2055524920717565727920666f72206e6f60008201527f6e6578697374656e7420746f6b656e0000000000000000000000000000000000602082015250565b7f4552433732313a20617070726f76616c20746f2063757272656e74206f776e6560008201527f7200000000000000000000000000000000000000000000000000000000000000602082015250565b7f4552433732313a207472616e736665722063616c6c6572206973206e6f74206f60008201527f776e6572206e6f7220617070726f766564000000000000000000000000000000602082015250565b7f455243373231456e756d657261626c653a20676c6f62616c20696e646578206f60008201527f7574206f6620626f756e64730000000000000000000000000000000000000000602082015250565b7f4552433732314275726e61626c653a2063616c6c6572206973206e6f74206f7760008201527f6e6572206e6f7220617070726f76656400000000000000000000000000000000602082015250565b61377d81613037565b811461378857600080fd5b50565b61379481613049565b811461379f57600080fd5b50565b6137ab81613055565b81146137b657600080fd5b50565b6137c2816130a1565b81146137cd57600080fd5b5056fea2646970667358221220763a50421343267c005373ace8a2826d240b09ef56d423cfbb1c34bd7ee5a53a64736f6c63430008040033",
  "devdoc": {
    "kind": "dev",
    "methods": {
      "approve(address,uint256)": {
        "details": "See {IERC721-approve}."
      },
      "balanceOf(address)": {
        "details": "See {IERC721-balanceOf}."
      },
      "burn(uint256)": {
        "details": "Burns `tokenId`. See {ERC721-_burn}. Requirements: - The caller must own `tokenId` or be an approved operator."
      },
      "getApproved(uint256)": {
        "details": "See {IERC721-getApproved}."
      },
      "isApprovedForAll(address,address)": {
        "details": "See {IERC721-isApprovedForAll}."
      },
      "name()": {
        "details": "See {IERC721Metadata-name}."
      },
      "ownerOf(uint256)": {
        "details": "See {IERC721-ownerOf}."
      },
      "safeTransferFrom(address,address,uint256)": {
        "details": "See {IERC721-safeTransferFrom}."
      },
      "safeTransferFrom(address,address,uint256,bytes)": {
        "details": "See {IERC721-safeTransferFrom}."
      },
      "setApprovalForAll(address,bool)": {
        "details": "See {IERC721-setApprovalForAll}."
      },
      "supportsInterface(bytes4)": {
        "details": "See {IERC165-supportsInterface}."
      },
      "symbol()": {
        "details": "See {IERC721Metadata-symbol}."
      },
      "tokenByIndex(uint256)": {
        "details": "See {IERC721Enumerable-tokenByIndex}."
      },
      "tokenOfOwnerByIndex(address,uint256)": {
        "details": "See {IERC721Enumerable-tokenOfOwnerByIndex}."
      },
      "tokenURI(uint256)": {
        "details": "See {IERC721Metadata-tokenURI}."
      },
      "totalSupply()": {
        "details": "See {IERC721Enumerable-totalSupply}."
      },
      "transferFrom(address,address,uint256)": {
        "details": "See {IERC721-transferFrom}."
      }
    },
    "version": 1
  },
  "userdoc": {
    "kind": "user",
    "methods": {},
    "version": 1
  },
  "storageLayout": {
    "storage": [
      {
        "astId": 25,
        "contract": "contracts/L2KeyHandler.sol:L2KeyHandler",
        "label": "_name",
        "offset": 0,
        "slot": "0",
        "type": "t_string_storage"
      },
      {
        "astId": 27,
        "contract": "contracts/L2KeyHandler.sol:L2KeyHandler",
        "label": "_symbol",
        "offset": 0,
        "slot": "1",
        "type": "t_string_storage"
      },
      {
        "astId": 31,
        "contract": "contracts/L2KeyHandler.sol:L2KeyHandler",
        "label": "_owners",
        "offset": 0,
        "slot": "2",
        "type": "t_mapping(t_uint256,t_address)"
      },
      {
        "astId": 35,
        "contract": "contracts/L2KeyHandler.sol:L2KeyHandler",
        "label": "_balances",
        "offset": 0,
        "slot": "3",
        "type": "t_mapping(t_address,t_uint256)"
      },
      {
        "astId": 39,
        "contract": "contracts/L2KeyHandler.sol:L2KeyHandler",
        "label": "_tokenApprovals",
        "offset": 0,
        "slot": "4",
        "type": "t_mapping(t_uint256,t_address)"
      },
      {
        "astId": 45,
        "contract": "contracts/L2KeyHandler.sol:L2KeyHandler",
        "label": "_operatorApprovals",
        "offset": 0,
        "slot": "5",
        "type": "t_mapping(t_address,t_mapping(t_address,t_bool))"
      },
      {
        "astId": 1009,
        "contract": "contracts/L2KeyHandler.sol:L2KeyHandler",
        "label": "_ownedTokens",
        "offset": 0,
        "slot": "6",
        "type": "t_mapping(t_address,t_mapping(t_uint256,t_uint256))"
      },
      {
        "astId": 1013,
        "contract": "contracts/L2KeyHandler.sol:L2KeyHandler",
        "label": "_ownedTokensIndex",
        "offset": 0,
        "slot": "7",
        "type": "t_mapping(t_uint256,t_uint256)"
      },
      {
        "astId": 1016,
        "contract": "contracts/L2KeyHandler.sol:L2KeyHandler",
        "label": "_allTokens",
        "offset": 0,
        "slot": "8",
        "type": "t_array(t_uint256)dyn_storage"
      },
      {
        "astId": 1020,
        "contract": "contracts/L2KeyHandler.sol:L2KeyHandler",
        "label": "_allTokensIndex",
        "offset": 0,
        "slot": "9",
        "type": "t_mapping(t_uint256,t_uint256)"
      },
      {
        "astId": 2050,
        "contract": "contracts/L2KeyHandler.sol:L2KeyHandler",
        "label": "_tokenIds",
        "offset": 0,
        "slot": "10",
        "type": "t_struct(Counter)1715_storage"
      },
      {
        "astId": 2053,
        "contract": "contracts/L2KeyHandler.sol:L2KeyHandler",
        "label": "messagePasser",
        "offset": 0,
        "slot": "11",
        "type": "t_contract(IOVMMessagePasser)2254"
      },
      {
        "astId": 2055,
        "contract": "contracts/L2KeyHandler.sol:L2KeyHandler",
        "label": "lockBox",
        "offset": 0,
        "slot": "12",
        "type": "t_address"
      },
      {
        "astId": 2065,
        "contract": "contracts/L2KeyHandler.sol:L2KeyHandler",
        "label": "metadata",
        "offset": 0,
        "slot": "13",
        "type": "t_mapping(t_uint256,t_struct(LockedL1Token)2060_storage)"
      }
    ],
    "types": {
      "t_address": {
        "encoding": "inplace",
        "label": "address",
        "numberOfBytes": "20"
      },
      "t_array(t_uint256)dyn_storage": {
        "base": "t_uint256",
        "encoding": "dynamic_array",
        "label": "uint256[]",
        "numberOfBytes": "32"
      },
      "t_bool": {
        "encoding": "inplace",
        "label": "bool",
        "numberOfBytes": "1"
      },
      "t_contract(IOVMMessagePasser)2254": {
        "encoding": "inplace",
        "label": "contract IOVMMessagePasser",
        "numberOfBytes": "20"
      },
      "t_mapping(t_address,t_bool)": {
        "encoding": "mapping",
        "key": "t_address",
        "label": "mapping(address => bool)",
        "numberOfBytes": "32",
        "value": "t_bool"
      },
      "t_mapping(t_address,t_mapping(t_address,t_bool))": {
        "encoding": "mapping",
        "key": "t_address",
        "label": "mapping(address => mapping(address => bool))",
        "numberOfBytes": "32",
        "value": "t_mapping(t_address,t_bool)"
      },
      "t_mapping(t_address,t_mapping(t_uint256,t_uint256))": {
        "encoding": "mapping",
        "key": "t_address",
        "label": "mapping(address => mapping(uint256 => uint256))",
        "numberOfBytes": "32",
        "value": "t_mapping(t_uint256,t_uint256)"
      },
      "t_mapping(t_address,t_uint256)": {
        "encoding": "mapping",
        "key": "t_address",
        "label": "mapping(address => uint256)",
        "numberOfBytes": "32",
        "value": "t_uint256"
      },
      "t_mapping(t_uint256,t_address)": {
        "encoding": "mapping",
        "key": "t_uint256",
        "label": "mapping(uint256 => address)",
        "numberOfBytes": "32",
        "value": "t_address"
      },
      "t_mapping(t_uint256,t_struct(LockedL1Token)2060_storage)": {
        "encoding": "mapping",
        "key": "t_uint256",
        "label": "mapping(uint256 => struct L2KeyHandler.LockedL1Token)",
        "numberOfBytes": "32",
        "value": "t_struct(LockedL1Token)2060_storage"
      },
      "t_mapping(t_uint256,t_uint256)": {
        "encoding": "mapping",
        "key": "t_uint256",
        "label": "mapping(uint256 => uint256)",
        "numberOfBytes": "32",
        "value": "t_uint256"
      },
      "t_string_storage": {
        "encoding": "bytes",
        "label": "string",
        "numberOfBytes": "32"
      },
      "t_struct(Counter)1715_storage": {
        "encoding": "inplace",
        "label": "struct Counters.Counter",
        "members": [
          {
            "astId": 1714,
            "contract": "contracts/L2KeyHandler.sol:L2KeyHandler",
            "label": "_value",
            "offset": 0,
            "slot": "0",
            "type": "t_uint256"
          }
        ],
        "numberOfBytes": "32"
      },
      "t_struct(LockedL1Token)2060_storage": {
        "encoding": "inplace",
        "label": "struct L2KeyHandler.LockedL1Token",
        "members": [
          {
            "astId": 2057,
            "contract": "contracts/L2KeyHandler.sol:L2KeyHandler",
            "label": "tokenContract",
            "offset": 0,
            "slot": "0",
            "type": "t_address"
          },
          {
            "astId": 2059,
            "contract": "contracts/L2KeyHandler.sol:L2KeyHandler",
            "label": "tokenId",
            "offset": 0,
            "slot": "1",
            "type": "t_uint256"
          }
        ],
        "numberOfBytes": "64"
      },
      "t_uint256": {
        "encoding": "inplace",
        "label": "uint256",
        "numberOfBytes": "32"
      }
    }
  }
}