{
  "address": "0xB5642C348Ef444d801ED799fb9b122f980bf7178",
  "abi": [
    {
      "inputs": [
        {
          "internalType": "address",
          "name": "_messagePasserAddress",
          "type": "address"
        },
        {
          "internalType": "address",
          "name": "_l2KeyHandlerAddress",
          "type": "address"
        }
      ],
      "stateMutability": "nonpayable",
      "type": "constructor"
    },
    {
      "inputs": [],
      "name": "Unauthorized",
      "type": "error"
    },
    {
      "inputs": [
        {
          "internalType": "address",
          "name": "",
          "type": "address"
        },
        {
          "internalType": "address",
          "name": "from",
          "type": "address"
        },
        {
          "internalType": "uint256",
          "name": "tokenId",
          "type": "uint256"
        },
        {
          "internalType": "bytes",
          "name": "",
          "type": "bytes"
        }
      ],
      "name": "onERC721Received",
      "outputs": [
        {
          "internalType": "bytes4",
          "name": "",
          "type": "bytes4"
        }
      ],
      "stateMutability": "nonpayable",
      "type": "function"
    },
    {
      "inputs": [
        {
          "internalType": "address",
          "name": "tokenAddress",
          "type": "address"
        },
        {
          "internalType": "uint256",
          "name": "tokenId",
          "type": "uint256"
        },
        {
          "internalType": "address",
          "name": "to",
          "type": "address"
        }
      ],
      "name": "release",
      "outputs": [],
      "stateMutability": "nonpayable",
      "type": "function"
    }
  ],
  "transactionHash": "0xc21cf835fe5f46178183c3172951f701b854004c817cd8467f2e19f449856f43",
  "args": [
    "0xe4d0940df19f04C60006BA3420D13a82E3af7bA2",
    "0x77aD4f1978Fdc51bf7A659e042ed59CEB0E03db9"
  ],
  "numDeployments": 1,
  "solcInputHash": "7e3711493fb2efdb47d2a3aa4361472d",
  "bytecode": "0x608060405234801561001057600080fd5b50604051610a0c380380610a0c833981810160405281019061003291906100cf565b816000806101000a81548173ffffffffffffffffffffffffffffffffffffffff021916908373ffffffffffffffffffffffffffffffffffffffff16021790555080600160006101000a81548173ffffffffffffffffffffffffffffffffffffffff021916908373ffffffffffffffffffffffffffffffffffffffff1602179055505050610154565b6000815190506100c98161013d565b92915050565b600080604083850312156100e257600080fd5b60006100f0858286016100ba565b9250506020610101858286016100ba565b9150509250929050565b60006101168261011d565b9050919050565b600073ffffffffffffffffffffffffffffffffffffffff82169050919050565b6101468161010b565b811461015157600080fd5b50565b6108a9806101636000396000f3fe608060405234801561001057600080fd5b50600436106100365760003560e01c8063150b7a021461003b57806315f415011461006b575b600080fd5b610055600480360381019061005091906104a2565b610087565b604051610062919061068d565b60405180910390f35b6100856004803603810190610080919061051d565b6101e1565b005b60008060009054906101000a900473ffffffffffffffffffffffffffffffffffffffff1673ffffffffffffffffffffffffffffffffffffffff16633dbb202b600160009054906101000a900473ffffffffffffffffffffffffffffffffffffffff163386886040516024016100fe93929190610656565b6040516020818303038152906040527f95bda19d000000000000000000000000000000000000000000000000000000007bffffffffffffffffffffffffffffffffffffffffffffffffffffffff19166020820180517bffffffffffffffffffffffffffffffffffffffffffffffffffffffff8381831617835250505050620f42406040518463ffffffff1660e01b815260040161019d93929190610618565b600060405180830381600087803b1580156101b757600080fd5b505af11580156101cb573d6000803e3d6000fd5b5050505063150b7a0260e01b9050949350505050565b60008054906101000a900473ffffffffffffffffffffffffffffffffffffffff1673ffffffffffffffffffffffffffffffffffffffff163373ffffffffffffffffffffffffffffffffffffffff161415806103275750600160009054906101000a900473ffffffffffffffffffffffffffffffffffffffff1673ffffffffffffffffffffffffffffffffffffffff1660008054906101000a900473ffffffffffffffffffffffffffffffffffffffff1673ffffffffffffffffffffffffffffffffffffffff16636e296e456040518163ffffffff1660e01b815260040160206040518083038186803b1580156102d657600080fd5b505afa1580156102ea573d6000803e3d6000fd5b505050506040513d601f19601f8201168201806040525081019061030e9190610479565b73ffffffffffffffffffffffffffffffffffffffff1614155b1561035e576040517f82b4290000000000000000000000000000000000000000000000000000000000815260040160405180910390fd5b8273ffffffffffffffffffffffffffffffffffffffff166342842e0e3083856040518463ffffffff1660e01b815260040161039b939291906105e1565b600060405180830381600087803b1580156103b557600080fd5b505af11580156103c9573d6000803e3d6000fd5b50505050505050565b60006103e56103e0846106cd565b6106a8565b9050828152602081018484840111156103fd57600080fd5b610408848285610792565b509392505050565b60008135905061041f81610845565b92915050565b60008151905061043481610845565b92915050565b600082601f83011261044b57600080fd5b813561045b8482602086016103d2565b91505092915050565b6000813590506104738161085c565b92915050565b60006020828403121561048b57600080fd5b600061049984828501610425565b91505092915050565b600080600080608085870312156104b857600080fd5b60006104c687828801610410565b94505060206104d787828801610410565b93505060406104e887828801610464565b925050606085013567ffffffffffffffff81111561050557600080fd5b6105118782880161043a565b91505092959194509250565b60008060006060848603121561053257600080fd5b600061054086828701610410565b935050602061055186828701610464565b925050604061056286828701610410565b9150509250925092565b6105758161071a565b82525050565b6105848161072c565b82525050565b6000610595826106fe565b61059f8185610709565b93506105af8185602086016107a1565b6105b881610834565b840191505092915050565b6105cc81610778565b82525050565b6105db81610782565b82525050565b60006060820190506105f6600083018661056c565b610603602083018561056c565b61061060408301846105c3565b949350505050565b600060608201905061062d600083018661056c565b818103602083015261063f818561058a565b905061064e60408301846105d2565b949350505050565b600060608201905061066b600083018661056c565b61067860208301856105c3565b610685604083018461056c565b949350505050565b60006020820190506106a2600083018461057b565b92915050565b60006106b26106c3565b90506106be82826107d4565b919050565b6000604051905090565b600067ffffffffffffffff8211156106e8576106e7610805565b5b6106f182610834565b9050602081019050919050565b600081519050919050565b600082825260208201905092915050565b600061072582610758565b9050919050565b60007fffffffff0000000000000000000000000000000000000000000000000000000082169050919050565b600073ffffffffffffffffffffffffffffffffffffffff82169050919050565b6000819050919050565b600063ffffffff82169050919050565b82818337600083830152505050565b60005b838110156107bf5780820151818401526020810190506107a4565b838111156107ce576000848401525b50505050565b6107dd82610834565b810181811067ffffffffffffffff821117156107fc576107fb610805565b5b80604052505050565b7f4e487b7100000000000000000000000000000000000000000000000000000000600052604160045260246000fd5b6000601f19601f8301169050919050565b61084e8161071a565b811461085957600080fd5b50565b61086581610778565b811461087057600080fd5b5056fea2646970667358221220525c52dccb1802365332d71840e5b1b10bb04ad71039b486dc826a612f20816364736f6c63430008040033",
  "devdoc": {
    "kind": "dev",
    "methods": {},
    "version": 1
  },
  "userdoc": {
    "kind": "user",
    "methods": {},
    "version": 1
  },
  "storageLayout": {
    "storage": [
      {
        "astId": 2241,
        "contract": "contracts/LockBox.sol:LockBox",
        "label": "messagePasser",
        "offset": 0,
        "slot": "0",
        "type": "t_contract(IOVMMessagePasser)2365"
      },
      {
        "astId": 2243,
        "contract": "contracts/LockBox.sol:LockBox",
        "label": "l2KeyHandler",
        "offset": 0,
        "slot": "1",
        "type": "t_address"
      }
    ],
    "types": {
      "t_address": {
        "encoding": "inplace",
        "label": "address",
        "numberOfBytes": "20"
      },
      "t_contract(IOVMMessagePasser)2365": {
        "encoding": "inplace",
        "label": "contract IOVMMessagePasser",
        "numberOfBytes": "20"
      }
    }
  }
}